:10000000008000204104000049080000E5080000CD
:1000100049080000490800004908000000000000ED
:10002000000000000000000000000000490800007F
:1000300049080000000000004908000049080000CD
:10004000490800004908000049080000490800006C
:10005000490800004908000049080000490800005C
:100060004908000049080000990400004908000000
:10007000490800004908000049080000490800003C
:10008000490800004908000049080000490800002C
:10009000490800004908000049080000490800001C
:1000A000490800004908000049080000490800000C
:1000B00049080000490800004908000049080000FC
:10040000FFFFFFFFFFFFFFFFFFFFFFFFFFFFFFFFFC
:10041000FFFFFFFFFFFFFFFFFFFFFFFFFFFFFFFFEC
:10042000FFFFFFFFFFFFFFFFFFFFFFFFFFFFFFFFDC
:10043000FFFFFFFFFFFFFFFFFFFFFFFFFFFFFFFFCC
:1004400000F005FA0E480F490022814201D004C095
:10045000FBE70D480D490E4A814202D008CA08C088
:10046000FAE70C484FF47001026842EA01020260A8
:10047000BFF34F8FBFF36F8F00F0E2F900DE000093
:1004800000000020040000200000002000000020E8
:100490005C09000088ED00E0D0B502AF00F0F7F98C
:1004A000044600F0EEF940F201000121C2F2000022
:1004B000E207017048F23C00C4F2070001681BD15A
:1004C000490615D540F200010122C2F20001BFF336
:1004D0005F8F0A70BFF35F8F016821F040010160F8
:1004E00046F22830C4F20000016821F48031016036
:1004F000BDE8D04000F0C7B9490658BFD0BD40F2B2
:1005000000010122C2F20001BFF35F8F0A70BFF346
:100510005F8F016821F04001016046F22830C4F28B
:100520000000016821F480310160D0BD80B56F46C4
:1005300000F093F940F20101C2F200010A78002AAA
:1005400040F0668101220A7000F092F900F09FF9F4
:10055000044600F096F940F20200E207C2F2000001
:10056000017807D1002940F05B810121017000F082
:100570008AF904E0002940F05581012101704EF212
:1005800080404AF20351C4F20100002220F8821C8C
:100590004EF22601C4F2010181F87A2091F87A2006
:1005A000D2060CD591F87A20D20644BF91F87A2071
:1005B0005FEAC26203D591F87A20D206EED4012216
:1005C00002700278D20709D10278D20704BF0278FC
:1005D0005FEAC27202D10278D207F2D02022C1F8BB
:1005E000112000220A740A7CD20709D00A7CD207A3
:1005F0001CBF0A7C5FEAC27202D00A7CD207F2D129
:100600008A7DD20709D18A7DD20704BF8A7D5FEA3D
:10061000C27202D18A7DD207F2D040F20012C1F23A
:10062000040241F8062C00220A700A78520709D009
:100630000A7852071CBF0A785FEA427202D00A7831
:100640005207F2D14CF204110122C4F201010A80D6
:100650000A88D20709D00A88D2071CBF0A885FEA35
:10066000C27202D00A88D207F2D1012240F2200AD7
:1006700021F8042C4FF4254120F8821C4EF2100082
:10068000CEF20000C4F2040A016846F22833C4F234
:1006900000035D2541F004010160BAF8021041F445
:1006A0000461AAF8021047F20801C4F204010A68C2
:1006B00022F020020A6048F22C01C4F207010A6805
:1006C00022F001020A604A6842F001024A6046F6DE
:1006D000FF32C0F2DC228A630022CA611E6865F321
:1006E00007061E604FF480634FF6FE76C0F8F030C8
:1006F000CFF6F8060B68334001330B60BAF80010F0
:1007000021F40461AAF8001043F27F414160826045
:10071000016841F0010101600168C90309D4016861
:10072000C9035CBF01685FEAC13102D40168C90333
:10073000F2D5016840F200060025C2F200064FF033
:10074000000921F00101016005E009F10100B0F1AB
:10075000070918BF8146BFF35F8FD6E84F0FC6E881
:10076000415F0029F9D1BFF35F8F08BBBFF35F8FF3
:10077000D6E84F0FC6E8415F0029F9D1BFF35F8F7C
:10078000B0B9BFF35F8FD6E84F0FC6E8415F0029CD
:10079000F9D1BFF35F8F58B9BFF35F8FD6E84F0F22
:1007A000C6E8415F0029F9D10028BFF35F8FD2D09E
:1007B00040F6081209EB4900C0F200021724115A52
:1007C0001044807840EA012B0EE0BAF80000013CAA
:1007D00020F40460AAF8000000F057F800F055F883
:1007E00000F053F8601CB0D0BAF8000040F4046088
:1007F000AAF800002BFA04F04FEAC07800F045F8A0
:10080000B8F1000FE1D000F040F800F03EF8DCE76E
:1008100000F00EF840F62010C0F2000000F03AF8A8
:1008200000F031F840F6F800C0F2000000F032F8B5
:1008300080B56F4600F00100BDE8804000F018B8B8
:1008400080B56F46FFF772FE80B56F46FEE780B554
:100850006F4680BD80B56F46FEE7D0B502AF00F0B1
:1008600016F8012121EA000400F00BF82046D0BD63
:1008700080B56F46002808BF80BDBDE8804000F00D
:1008800002B872B6704762B6704700BF7047EFF3A8
:100890001080704780B56F46024640F63010C0F2B7
:1008A00000002B2100F000F880B56F4688B0944618
:1008B0000122019206AA0023CDE90601009204223A
:1008C0006846614604930393029200F000F880B5F5
:1008D0006F4684B0CDE9010101A80122ADF80C20DA
:0C08E000FFF7B8FF80B56F46FEE7D4D4E8
:1008EC007372635C6D61696E2E727300EC080000AC
:1008FC000B000000490100002E0000008000008069
:10090C005200808000008000008080000080800009
:10091C0080000000EC0800000B0000004801000003
:10092C002600000063616C6C656420604F70746914
:10093C006F6E3A3A756E77726170282960206F6E0F
:10094C00206120604E6F6E65602076616C7565006D
:0400000300000441B4
:00000001FF
