:1000000000800020410400009F0700003B08000022
:100010009F0700009F0700009F07000000000000EE
:100020000000000000000000000000009F0700002A
:100030009F070000000000009F0700009F070000CE
:100040009F0700009F0700009F0700009F07000018
:100050009F0700009F0700009F0700009F07000008
:100060009F0700009F0700009F0700009F070000F8
:100070009F0700009F0700009F0700009F070000E8
:1004400000F0B0F90E480F490022814201D004C0EB
:10045000FBE70D480D490E4A814202D008CA08C088
:10046000FAE70C484FF47001026842EA01020260A8
:10047000BFF34F8FBFF36F8F00F08DF900DE0000E8
:1004800000000020040000200000002000000020E8
:100490009808000088ED00E080B56F468AB000F053
:1004A00087F940F20001C2F200010A78002A40F008
:1004B0005A8101220A7000F086F900F093F904468F
:1004C00000F08AF940F20100E207C2F20000017870
:1004D00007D1002940F04F810121017000F07EF921
:1004E00004E0002940F04981012101704EF2804072
:1004F0004AF20351C4F20100002220F8821C4EF29D
:100500002601C4F2010181F87A2091F87A20D206FE
:100510000CD591F87A20D20644BF91F87A205FEA90
:10052000C26203D591F87A20D206EED4012202707D
:100530000278D20709D10278D20704BF02785FEAB5
:10054000C27202D10278D207F2D02022C1F8112063
:1005500000220A740A7CD20709D00A7CD2071CBF89
:100560000A7C5FEAC27202D00A7CD207F2D18A7D8D
:10057000D20709D18A7DD20704BF8A7D5FEAC272A1
:1005800002D18A7DD207F2D040F20012C1F20402F9
:1005900041F8062C00220A700A78520709D00A781E
:1005A00052071CBF0A785FEA427202D00A785207EB
:1005B000F2D14CF204110122C4F201010A800A882E
:1005C000D20709D00A88D2071CBF0A885FEAC27224
:1005D00002D00A88D207F2D101224EF2100421F88B
:1005E000042C4FF4254120F8821CCEF20004206830
:1005F0002025C4F20405002340F004002060688830
:1006000040F40460688002A80830019080204FF018
:10061000000A8DF8240048F20000C0F28000CDE905
:1006200007004FF4000006905220C8F280000590A9
:100630008020C8F20000049008E020680AF1010A56
:10064000BAF1070F20F001002060DFD028880AEB04
:100650004A01019E20F40460725A288043F27F40D0
:10066000606070181E468078A360216842EA0040EE
:1006700041F0010121602168C90309D42168C9033F
:100680005CBF21685FEAC13102D42168C903F2D599
:1006900021684FF0170921F001012160C0F30741E3
:1006A00041EA002020F07F480EE02888A9F10109E6
:1006B00020F40460288000F093F800F091F800F036
:1006C0008FF819F1010011D0288840F404602880C7
:1006D00028FA09F04FEAC07B00F082F8BBF1000F66
:1006E000E3D000F07DF800F07BF8DEE76FF07F40AC
:1006F00033466060A660206840F0010020602068FA
:10070000C00309D42068C0035CBF20685FEAC03022
:1007100002D42068C003F2D52068C00309D4206841
:10072000C0035CBF20685FEAC03002D42068C00309
:10073000F2D546F6FF30C0F2DC006060A3602068AE
:1007400040F0010020602068C0033FF576AF2068CC
:10075000C0035CBF20685FEAC0303FF56EAF206821
:10076000C003F0D569E700F00EF840F65C00C0F277
:10077000000000F03AF800F031F840F64C00C0F20A
:10078000000000F032F880B56F4600F00100BDE8CF
:10079000804000F018B880B56F46FFF77DFE80B549
:1007A0006F46FEE780B56F4680BD80B56F46FEE7B9
:1007B000D0B502AF00F016F8012121EA000400F0E4
:1007C0000BF82046D0BD80B56F46002808BF80BD1D
:1007D000BDE8804000F002B872B6704762B670475C
:1007E00000BF7047EFF31080704780B56F46024638
:1007F00040F66C00C0F200002B2100F000F880B53C
:100800006F4688B094460122019206AA0023CDE9E2
:100810000601009204226846614604930393029203
:1008200000F000F880B56F4684B0CDE9010101A861
:100830000122ADF80C20FFF7B8FF80B56F46FEE748
:100840007372635C6D61696E2E7273004008000004
:100850000B000000120100002E0000004008000004
:100860000B000000110100002600000063616C6CA9
:10087000656420604F7074696F6E3A3A756E777276
:100880006170282960206F6E206120604E6F6E6558
:08089000602076616C756500C3
:0400000300000441B4
:00000001FF
