:100000000080002041040000B70B0000530C0000EA
:10001000B70B0000B70B0000B70B0000000000009A
:10002000000000000000000000000000B70B00000E
:10003000B70B000000000000B70B0000B70B00007A
:10004000B70B0000B70B0000B70B0000B70B0000A8
:10005000B70B0000B70B0000B70B0000B70B000098
:10006000B70B0000B70B0000B70B0000B70B000088
:10007000B70B0000B70B0000B70B0000B70B000078
:1004400000F0BCFB0E480F490022814201D004C0DD
:10045000FBE70D480D490E4A814202D008CA08C088
:10046000FAE70C484FF47001026842EA01020260A8
:10047000BFF34F8FBFF36F8F00F099FB00DE0000DA
:1004800000000020040000200000002000000020E8
:10049000A00C000088ED00E080B56F4600F091FBF5
:1004A00040F20001C2F200010A78002A40F06F8396
:1004B00001220A7000F090FB4EF280404AF2035194
:1004C000C4F20100002220F8821C4EF23201C4F274
:1004D000010181F86E2091F86E20D2060CD591F8BA
:1004E0006E20D20644BF91F86E205FEAC26203D547
:1004F00091F86E20D206EED4012202700278D20763
:1005000009D10278D20704BF02785FEAC27202D131
:100510000278D207F2D001220A700A78D20709D1F4
:100520000A78D20704BF0A785FEAC27202D10A7859
:10053000D207F2D00022092300F86D2C81F8703028
:100540000A700A78D20709D00A78D2071CBF0A7845
:100550005FEAC27202D00A78D207F2D18A7A120711
:1005600009D48A7A12075CBF8A7A5FEA027202D4DF
:100570008A7A1207F2D58B2201F8072C002201F8A3
:10058000082C11F8082CD2070CD011F8082CD2072F
:100590001CBF11F8082C5FEAC27203D011F8082CB6
:1005A000D207EED18A7A920609D48A7A92065CBF83
:1005B0008A7A5FEA826202D48A7A9206F2D540F29F
:1005C0000012C1F2040241F8122C052201F80C2C91
:1005D00011F80C2C02F00702052A11D011F80C2C8E
:1005E00002F00702052A1EBF11F80C2C02F00702C8
:1005F000052A05D011F80C2C02F00702052AE7D1D4
:100600004CF204110122C4F201010A800A88D207C7
:1006100009D00A88D2071CBF0A885FEAC27202D0DA
:100620000A88D207F2D14FF0010B202521F804BC33
:100630004FF4254120F8821CC4F20405688844F276
:10064000402848F20009C0F20F08C0F2800948F2C1
:10065000800A40F4046068802888464620F40460DC
:10066000288000F0C6FA013EFBD16FF007060CE0CF
:10067000288820F40460288000F0BBFA00F0B9FA62
:1006800000F0B7FA0136102E0CD0288840F4046030
:10069000288000F0AEFA002EEAD100F0AAFA00F0AD
:1006A000A8FAE5E7464600F0A4FA013EFBD1288807
:1006B000464620F40460288000F09BFA013EFBD1FE
:1006C00017260CE02888013E20F40460288000F002
:1006D00090FA00F08EFA00F08CFA701C0FD0288887
:1006E0000BFA06F440F40460288000F082FA14F457
:1006F000A50FE7D000F07DFA00F07BFAE2E746466E
:1007000000F077FA013EFBD12888464620F40460C9
:10071000288000F06EFA013EFBD117260CE02888F5
:10072000013E20F40460288000F063FA00F061FAD2
:1007300000F05FFA701C0FD028880BFA06F440F422
:100740000460288000F055FA14EA090FE7D000F0A1
:1007500050FA00F04EFAE2E7464600F04AFA013E4F
:10076000FBD12888464620F40460288000F041FA36
:10077000013EFBD1288840F40460288000F039FA5B
:1007800000F037FA00F035FA288820F40460288059
:1007900000F02FFA00F02DFA00F02BFA288840F430
:1007A0000460288000F025FA288820F4046028805E
:1007B00000F01FFA00F01DFA00F01BFA288840F440
:1007C0000460288000F015FA288820F4046028804E
:1007D00000F00FFA00F00DFA00F00BFA288840F450
:1007E0000460288000F005FA288820F4046028803E
:1007F00000F0FFF900F0FDF900F0FBF9288840F463
:100800000460288000F0F5F9288820F4046028802E
:1008100000F0EFF900F0EDF900F0EBF9288840F472
:100820000460288000F0E5F9288820F4046028801E
:1008300000F0DFF900F0DDF900F0DBF9288840F482
:100840000460288000F0D5F9288820F4046028800E
:1008500000F0CFF900F0CDF900F0CBF9288840F492
:100860000460288000F0C5F9288820F404602880FE
:1008700000F0BFF900F0BDF900F0BBF9288840F4A2
:100880000460288000F0B5F9288820F404602880EE
:1008900000F0AFF900F0ADF900F0ABF9288840F4B2
:1008A0000460288000F0A5F9288820F404602880DE
:1008B00000F09FF900F09DF900F09BF9288840F4C2
:1008C0000460288000F095F9288820F404602880CE
:1008D00000F08FF900F08DF900F08BF9288840F4D2
:1008E0000460288000F085F9288820F404602880BE
:1008F00000F07FF900F07DF900F07BF9288840F4E2
:100900000460288000F075F9288820F404602880AD
:1009100000F06FF900F06DF900F06BF9288840F4F1
:100920000460288000F065F9288820F4046028809D
:1009300000F05FF900F05DF900F05BF9288840F401
:100940000460288000F055F9288820F4046028808D
:1009500000F04FF900F04DF900F04BF9288840F411
:100960000460288000F045F9288820F4046028807D
:1009700000F03FF900F03DF900F03BF9288840F421
:100980000460288000F035F9288820F4046028806D
:1009900000F02FF900F02DF900F02BF9288840F431
:1009A0000460288000F025F9288820F4046028805D
:1009B00000F01FF900F01DF900F01BF9288840F441
:1009C0000460288000F015F9288820F4046028804D
:1009D00000F00FF900F00DF900F00BF9288840F451
:1009E0000460288000F005F9288820F4046028803D
:1009F00000F0FFF800F0FDF800F0FBF8288840F464
:100A00000460288000F0F5F8288820F4046028802D
:100A100000F0EFF800F0EDF800F0EBF8288840F473
:100A20000460288000F0E5F8288820F4046028801D
:100A300000F0DFF800F0DDF800F0DBF8288840F483
:100A40000460288000F0D5F8288820F4046028800D
:100A500000F0CFF800F0CDF800F0CBF8288840F493
:100A60000460288000F0C5F8288820F404602880FD
:100A700000F0BFF800F0BDF800F0BBF8464600F00B
:100A8000B8F8013EFBD12888464620F4046028804F
:100A900000F0AFF8013EFBD117260CE02888013E9C
:100AA00020F40460288000F0A4F800F0A2F800F020
:100AB000A0F8701C0FD028880BFA06F440F40460EC
:100AC000288000F096F814F0801FE7D000F091F82D
:100AD00000F08FF8E2E7464600F08BF8013EFBD1CC
:100AE0002888464620F40460288000F082F8013E01
:100AF000FBD118260BE0288820F40460288000F041
:100B000078F800F076F800F074F8013E0CD02888F0
:100B100040F40460288000F06CF8082EEBD100F05F
:100B200068F800F066F8E6E7464600F062F8013E35
:100B3000FBD12888464620F40460288000F059F84C
:100B4000013EFBD117260CE02888013E20F404600A
:100B5000288000F04EF800F04CF800F04AF8701CC5
:100B60000FD028880BFA06F440F40460288000F0C7
:100B700040F814EA0A0FE7D000F03BF800F039F82B
:100B8000E2E7464600F035F8013EFBD164E500F0AF
:100B900006F840F66440C0F2000000F032F880B57C
:100BA0006F4600F00100BDE8804000F015B880B548
:100BB0006F46FFF771FC80B56F46FEE780B56F4664
:100BC00080BDD0B502AF00F016F8012121EA000483
:100BD00000F00BF82046D0BD80B56F46002808BF56
:100BE00080BDBDE8804000F002B872B6704762B6C2
:100BF000704700BF7047EFF31080704780B56F46B5
:100C0000FEE780B56F46024640F67440C0F2000031
:100C10002B2100F000F880B56F4688B09446012281
:100C2000019206AA0023CDE906010092042268463B
:100C3000614604930393029200F000F880B56F467A
:100C400084B0CDE9010101A80122ADF80C20FFF725
:080C5000D5FF80B56F46FEE7F9
:100C58007372635C6D61696E2E727300580C0000CC
:100C68000B000000100100002600000063616C6C9E
:100C7800656420604F7074696F6E3A3A756E77726A
:100C88006170282960206F6E206120604E6F6E654C
:080C9800602076616C756500B7
:0400000300000441B4
:00000001FF
